{
  "contractName": "studentGrading",
  "abi": [
    {
      "constant": true,
      "inputs": [
        {
          "name": "",
          "type": "uint256"
        }
      ],
      "name": "studentData",
      "outputs": [
        {
          "name": "studentID",
          "type": "uint256"
        },
        {
          "name": "studentName",
          "type": "string"
        },
        {
          "name": "std",
          "type": "uint256"
        },
        {
          "name": "division",
          "type": "string"
        },
        {
          "name": "maths",
          "type": "uint256"
        },
        {
          "name": "science",
          "type": "uint256"
        },
        {
          "name": "ss",
          "type": "uint256"
        },
        {
          "name": "gujarati",
          "type": "uint256"
        },
        {
          "name": "english",
          "type": "uint256"
        },
        {
          "name": "parcentage",
          "type": "uint256"
        },
        {
          "name": "finalGrade",
          "type": "bool"
        }
      ],
      "payable": false,
      "stateMutability": "view",
      "type": "function"
    },
    {
      "constant": true,
      "inputs": [
        {
          "name": "",
          "type": "uint256"
        }
      ],
      "name": "teacherData",
      "outputs": [
        {
          "name": "teacherID",
          "type": "uint256"
        },
        {
          "name": "teacherName",
          "type": "string"
        },
        {
          "name": "subjectcode",
          "type": "uint256"
        },
        {
          "name": "teacherpassword",
          "type": "string"
        }
      ],
      "payable": false,
      "stateMutability": "view",
      "type": "function"
    },
    {
      "anonymous": false,
      "inputs": [
        {
          "indexed": false,
          "name": "_errorLog",
          "type": "string"
        }
      ],
      "name": "errorLog",
      "type": "event"
    },
    {
      "constant": false,
      "inputs": [
        {
          "name": "_teacherID",
          "type": "uint256"
        },
        {
          "name": "_teacherName",
          "type": "string"
        },
        {
          "name": "_subjectcode",
          "type": "uint256"
        },
        {
          "name": "_pass",
          "type": "string"
        }
      ],
      "name": "addTeacherData",
      "outputs": [],
      "payable": false,
      "stateMutability": "nonpayable",
      "type": "function"
    },
    {
      "constant": false,
      "inputs": [
        {
          "name": "_studentID",
          "type": "uint256"
        },
        {
          "name": "_studentName",
          "type": "string"
        },
        {
          "name": "_std",
          "type": "uint256"
        },
        {
          "name": "_division",
          "type": "string"
        }
      ],
      "name": "addStudentData",
      "outputs": [],
      "payable": false,
      "stateMutability": "nonpayable",
      "type": "function"
    },
    {
      "constant": false,
      "inputs": [
        {
          "name": "_teacherAddress",
          "type": "uint256"
        },
        {
          "name": "_studentID",
          "type": "uint256"
        },
        {
          "name": "_marks",
          "type": "uint256"
        }
      ],
      "name": "addMarks",
      "outputs": [],
      "payable": false,
      "stateMutability": "nonpayable",
      "type": "function"
    },
    {
      "constant": false,
      "inputs": [
        {
          "name": "_id",
          "type": "uint256"
        }
      ],
      "name": "grade",
      "outputs": [],
      "payable": false,
      "stateMutability": "nonpayable",
      "type": "function"
    }
  ],
  "bytecode": "0x608060405234801561001057600080fd5b50610eaa806100206000396000f300608060405260043610610078576000357c0100000000000000000000000000000000000000000000000000000000900463ffffffff16806311ae15791461007d57806334f0eb1a146100aa57806342f3690c146101ff5780634653dfe6146102c2578063c87bd9b414610385578063f9ffa7f0146104a5575b600080fd5b34801561008957600080fd5b506100a8600480360381019080803590602001909291905050506104e6565b005b3480156100b657600080fd5b506100d5600480360381019080803590602001909291905050506105b7565b604051808c8152602001806020018b8152602001806020018a81526020018981526020018881526020018781526020018681526020018581526020018415151515815260200183810383528d818151815260200191508051906020019080838360005b83811015610153578082015181840152602081019050610138565b50505050905090810190601f1680156101805780820380516001836020036101000a031916815260200191505b5083810382528b818151815260200191508051906020019080838360005b838110156101b957808201518184015260208101905061019e565b50505050905090810190601f1680156101e65780820380516001836020036101000a031916815260200191505b509d505050505050505050505050505060405180910390f35b34801561020b57600080fd5b506102c060048036038101908080359060200190929190803590602001908201803590602001908080601f016020809104026020016040519081016040528093929190818152602001838380828437820191505050505050919291929080359060200190929190803590602001908201803590602001908080601f016020809104026020016040519081016040528093929190818152602001838380828437820191505050505050919291929050505061074e565b005b3480156102ce57600080fd5b5061038360048036038101908080359060200190929190803590602001908201803590602001908080601f016020809104026020016040519081016040528093929190818152602001838380828437820191505050505050919291929080359060200190929190803590602001908201803590602001908080601f01602080910402602001604051908101604052809392919081815260200183838082843782019150505050505091929192905050506108f7565b005b34801561039157600080fd5b506103b060048036038101908080359060200190929190505050610a0f565b604051808581526020018060200184815260200180602001838103835286818151815260200191508051906020019080838360005b838110156104005780820151818401526020810190506103e5565b50505050905090810190601f16801561042d5780820380516001836020036101000a031916815260200191505b50838103825284818151815260200191508051906020019080838360005b8381101561046657808201518184015260208101905061044b565b50505050905090810190601f1680156104935780820380516001836020036101000a031916815260200191505b50965050505050505060405180910390f35b3480156104b157600080fd5b506104e4600480360381019080803590602001909291908035906020019092919080359060200190929190505050610b6f565b005b600560008083815260200190815260200160002060080154600080848152602001908152602001600020600701546000808581526020019081526020016000206006015460008086815260200190815260200160002060050154600080878152602001908152602001600020600401540101010181151561056357fe5b04600381905550600354600080838152602001908152602001600020600901819055506001600080838152602001908152602001600020600a0160006101000a81548160ff02191690831515021790555050565b6000602052806000526040600020600091509050806000015490806001018054600181600116156101000203166002900480601f0160208091040260200160405190810160405280929190818152602001828054600181600116156101000203166002900480156106695780601f1061063e57610100808354040283529160200191610669565b820191906000526020600020905b81548152906001019060200180831161064c57829003601f168201915b505050505090806002015490806003018054600181600116156101000203166002900480601f01602080910402602001604051908101604052809291908181526020018280546001816001161561010002031660029004801561070d5780601f106106e25761010080835404028352916020019161070d565b820191906000526020600020905b8154815290600101906020018083116106f057829003601f168201915b50505050509080600401549080600501549080600601549080600701549080600801549080600901549080600a0160009054906101000a900460ff1690508b565b836000808681526020019081526020016000206000015414156107d8577fdf8dca245d7ff96a83e9b8205a2ad0be04df6e3bbda74669314fdc76657f0e826040518080602001828103825260168152602001807f53747564656e742069732052656769737465726564210000000000000000000081525060200191505060405180910390a16108f1565b6101606040519081016040528085815260200184815260200183815260200182815260200160008152602001600081526020016000815260200160008152602001600081526020016000815260200160001515815250600080868152602001908152602001600020600082015181600001556020820151816001019080519060200190610866929190610dd9565b5060408201518160020155606082015181600301908051906020019061088d929190610dd9565b506080820151816004015560a0820151816005015560c0820151816006015560e082015181600701556101008201518160080155610120820151816009015561014082015181600a0160006101000a81548160ff0219169083151502179055509050505b50505050565b8360016000868152602001908152602001600020600001541415610982577fdf8dca245d7ff96a83e9b8205a2ad0be04df6e3bbda74669314fdc76657f0e826040518080602001828103825260168152602001807f546561636865722069732052656769737465726564210000000000000000000081525060200191505060405180910390a1610a09565b60806040519081016040528085815260200184815260200183815260200182815250600160008681526020019081526020016000206000820151816000015560208201518160010190805190602001906109dd929190610dd9565b50604082015181600201556060820151816003019080519060200190610a04929190610dd9565b509050505b50505050565b6001602052806000526040600020600091509050806000015490806001018054600181600116156101000203166002900480601f016020809104026020016040519081016040528092919081815260200182805460018160011615610100020316600290048015610ac15780601f10610a9657610100808354040283529160200191610ac1565b820191906000526020600020905b815481529060010190602001808311610aa457829003601f168201915b505050505090806002015490806003018054600181600116156101000203166002900480601f016020809104026020016040519081016040528092919081815260200182805460018160011615610100020316600290048015610b655780601f10610b3a57610100808354040283529160200191610b65565b820191906000526020600020905b815481529060010190602001808311610b4857829003601f168201915b5050505050905084565b60001515600080848152602001908152602001600020600a0160009054906101000a900460ff1615151415610d6b576001806000858152602001908152602001600020600201541415610bdb578060008084815260200190815260200160002060040181905550610d66565b600260016000858152602001908152602001600020600201541415610c19578060008084815260200190815260200160002060050181905550610d65565b600360016000858152602001908152602001600020600201541415610c57578060008084815260200190815260200160002060060181905550610d64565b600460016000858152602001908152602001600020600201541415610c95578060008084815260200190815260200160002060070181905550610d63565b600560016000858152602001908152602001600020600201541415610cd3578060008084815260200190815260200160002060080181905550610d62565b7fdf8dca245d7ff96a83e9b8205a2ad0be04df6e3bbda74669314fdc76657f0e826040518080602001828103825260238152602001807f506c6561736520456e7465722056616c6964205465616368657220416464726581526020017f737321000000000000000000000000000000000000000000000000000000000081525060400191505060405180910390a15b5b5b5b5b610dd4565b7fdf8dca245d7ff96a83e9b8205a2ad0be04df6e3bbda74669314fdc76657f0e8260405180806020018281038252601d8152602001807f596f752063616e206e6f74206368616e6765206d61726b73206e6f772100000081525060200191505060405180910390a15b505050565b828054600181600116156101000203166002900490600052602060002090601f016020900481019282601f10610e1a57805160ff1916838001178555610e48565b82800160010185558215610e48579182015b82811115610e47578251825591602001919060010190610e2c565b5b509050610e559190610e59565b5090565b610e7b91905b80821115610e77576000816000905550600101610e5f565b5090565b905600a165627a7a7230582074f7cadfe908ddad9ef31d1a6d80da68a45f162821ebaacb7c9ad740e4bae2540029",
  "source": "pragma solidity ^0.4.17;\r\n\r\ncontract studentGrading{\r\n    struct studentDetail{\r\n        uint studentID;\r\n        string studentName;\r\n        uint std;\r\n        string division;\r\n        uint maths;\r\n        uint science;\r\n        uint ss;\r\n        uint gujarati;\r\n        uint english;\r\n        uint parcentage;\r\n        bool finalGrade;\r\n    }\r\n\r\n    struct teacherDetail{\r\n        uint teacherID;\r\n        string teacherName;\r\n        uint subjectcode;\r\n        string teacherpassword;\r\n    }\r\n    \r\n    mapping(uint => studentDetail) public studentData;\r\n    mapping(uint => teacherDetail) public teacherData;\r\n\r\n    event errorLog(string _errorLog);\r\n    \r\n    address owner;\r\n    uint Result;\r\n    \r\n    \r\n    function addTeacherData(uint _teacherID, string _teacherName, uint _subjectcode, string _pass) public {\r\n        \r\n        if(teacherData[_teacherID].teacherID == _teacherID){\r\n            emit errorLog(\"Teacher is Registered!\");\r\n        }\r\n        else{\r\n            teacherData[_teacherID] = teacherDetail( _teacherID, _teacherName, _subjectcode, _pass);\r\n        }\r\n        \r\n    }\r\n    \r\n    function addStudentData(uint _studentID, string _studentName, uint _std, string _division) public {\r\n        if(studentData[_studentID].studentID == _studentID){\r\n            emit errorLog(\"Student is Registered!\");\r\n        }\r\n        else{\r\n            studentData[_studentID] = studentDetail( _studentID, _studentName, _std, _division, 0, 0, 0, 0, 0, 0, false);\r\n        }\r\n    }\r\n    \r\n    function addMarks(uint _teacherAddress, uint _studentID, uint _marks) public{\r\n        \r\n        \r\n        if(studentData[_studentID].finalGrade == false)\r\n        {\r\n            if(teacherData[_teacherAddress].subjectcode == 1){\r\n                studentData[_studentID].maths = _marks;\r\n            }\r\n            \r\n            else if(teacherData[_teacherAddress].subjectcode == 2){\r\n                studentData[_studentID].science = _marks;\r\n            }\r\n            \r\n            else if(teacherData[_teacherAddress].subjectcode == 3){\r\n                studentData[_studentID].ss = _marks;\r\n            }\r\n            \r\n            else if(teacherData[_teacherAddress].subjectcode == 4){\r\n                studentData[_studentID].gujarati = _marks;\r\n            }\r\n            \r\n            else if(teacherData[_teacherAddress].subjectcode == 5){\r\n                studentData[_studentID].english = _marks;\r\n            }\r\n            \r\n            else{\r\n                emit errorLog(\"Please Enter Valid Teacher Address!\");\r\n            }\r\n        }\r\n        \r\n        else\r\n        {\r\n            emit errorLog(\"You can not change marks now!\");\r\n        }\r\n    }\r\n    \r\n    function grade(uint _id) public{\r\n        Result = (studentData[_id].maths + studentData[_id].science + studentData[_id].ss + studentData[_id].gujarati + studentData[_id].english)/5;\r\n        \r\n        studentData[_id].parcentage = Result;\r\n        studentData[_id].finalGrade = true;\r\n        \r\n    }\r\n    \r\n    function getStudentData(uint _id) private view returns(uint, string, uint, string, uint, uint, uint, uint, uint, uint, bool){\r\n        return (studentData[_id].studentID,studentData[_id].studentName,studentData[_id].std,studentData[_id].division,studentData[_id].maths, studentData[_id].science, studentData[_id].ss, studentData[_id].gujarati, studentData[_id].english, studentData[_id].parcentage, studentData[_id].finalGrade);\r\n    }\r\n    \r\n}",
  "sourcePath": "D:\\Student Grading\\contracts\\studentGrading.sol",
  "compiler": {
    "name": "solc",
    "version": "0.4.23+commit.124ca40d.Emscripten.clang"
  },
  "schemaVersion": "2.0.0",
  "updatedAt": "2018-10-02T21:30:11.725Z"
}